:100000000C94FE000C9408010C9408010C94080157
:100010000C9408010C9408010C9408010C9408013C
:100020000C9408010C9408010C9408010C9408012C
:100030000C9408010C9408010C9408010C9408011C
:100040000C9408010C9408010C9408010C9408010C
:100050000C9408010C9408010C9408010C940801FC
:100060000C9408010C9408010C9408010C940801EC
:100070000C9408010C9408010C9408010C940801DC
:100080000C9408010C9408010C9408010C940801CC
:100090000C9408010C9408010C9408010C940801BC
:1000A0000C9408010C9408010C9408010C940801AC
:1000B0000C9408010C9408010C9408010C9408019C
:1000C0000C9408010C9408010C9408010C9408018C
:1000D0000C9408010C9408010C9408010C9408017C
:1000E0000C9408010C9408010C9408010C9408016C
:1000F0000C9408010C9408010C9408010C9408015C
:100100000C9408010C9408010C9408010C9408014B
:100110000C9408010C9408010C9408010C9408013B
:100120000C9408010C9408010C9408010C9408012B
:100130000C9408010C9408010C9408010C9408011B
:100140000C9408010C9408010C9408010C9408010B
:100150000C9408010C9408010C9408010C940801FB
:100160000C9408010C9408010C9408010C940801EB
:100170000C9408010C9408010C9408010C940801DB
:100180000C9408010C9408010C9408010C940801CB
:100190000C9408010C9408010C9408010C940801BB
:1001A0000C9408010C9408010C9408010C940801AB
:1001B0000C9408010C9408010C9408010C9408019B
:1001C0000C9408010C9408010C9408010C9408018B
:1001D0000C9408010C9408010C9408010C9408017B
:1001E0000C9408010C9408010C9408010C9408016B
:1001F0000C9408010C9408010C94080111241FBEF2
:10020000CFEFCDBFDFE2DEBF0E949F010C942B0237
:100210000C94000092E0909306068093C308E0ECF3
:10022000F8E082818823ECF76093C308E0ECF8E003
:1002300082818823ECF782E080930506089592E09E
:100240009093060680688093C308E0ECF8E0828112
:100250008823ECF71092C308E0ECF8E08281882351
:10026000ECF78091C30892E0909305060895811100
:1002700004C084E0809306060BC0813021F488E03E
:100280008093060605C08230A1F480E180930606C3
:100290006093C308E0ECF8E082818823ECF7409398
:1002A000C308E0ECF8E082818823ECF78CE18093CE
:1002B00005060895811104C084E0809306060BC0F2
:1002C000813021F488E08093060605C08230C1F4B5
:1002D00080E18093060660686093C308E0ECF8E074
:1002E00082818823ECF71092C308E0ECF8E0828169
:1002F0008823ECF78091C3089CE19093050608954C
:1003000080E008958093A008E0EAF8E0818184FF0E
:10031000FDCF6093A008662389F0DA016150862F33
:1003200090E00196480F591FE0EAF8E0818184FFD0
:10033000FDCF8D918083A417B507C1F70895CF93A2
:10034000DF931F92CDB7DEB7E0E5F0E080818260F9
:100350008083818181FFFDCF88ED84BF81E0809320
:100360004000E0E5F0E080818E7F8083E0E0F6E011
:100370008EE181838583E0E4F6E088EB818388E386
:10038000858383E08093A20091ED9093C008E0EA1A
:10039000F8E090E29383858383E8868380ED87830A
:1003A00088E1848363E384EF0E940A014CE060E10A
:1003B00080E00E9437014CE06FE080E00E9437014E
:1003C00043E066E380E00E94370146E060E181E0BF
:1003D0000E94370142E06FE081E00E9437014BE16B
:1003E00061E582E00E94370149E262E582E00E9415
:1003F000370143E26CE482E00E943701198280ED0C
:100400000E941F01883519F489818160898360E029
:1004100080E00E945A018A3F19F4898182608983B1
:1004200060E081E00E945A018F3019F48981846074
:10043000898360E482E00E945A01823319F4898141
:1004400088608983AE014F5F5F4F61E081E00E9469
:0A04500082017894FFCFF894FFCFEB
:00000001FF
