:100000000C94FE000C9408010C9408010C94080157
:100010000C9408010C9408010C9408010C9408013C
:100020000C9408010C9408010C9408010C9408012C
:100030000C9408010C9408010C9408010C9408011C
:100040000C9408010C9408010C9408010C9408010C
:100050000C9408010C9408010C9408010C940801FC
:100060000C9408010C9408010C9408010C940801EC
:100070000C9408010C9408010C9408010C940801DC
:100080000C9408010C9408010C9408010C940801CC
:100090000C9408010C9408010C9408010C940801BC
:1000A0000C9408010C9408010C9408010C940801AC
:1000B0000C9408010C9408010C9408010C9408019C
:1000C0000C9408010C9408010C9408010C9408018C
:1000D0000C9408010C9408010C9408010C9408017C
:1000E0000C9408010C9408010C9408010C9408016C
:1000F0000C9408010C9408010C9408010C9408015C
:100100000C9408010C9408010C9408010C9408014B
:100110000C9408010C9408010C9408010C9408013B
:100120000C9408010C9408010C9408010C9408012B
:100130000C9408010C9408010C9408010C9408011B
:100140000C9408010C9408010C9408010C9408010B
:100150000C9408010C9408010C9408010C940801FB
:100160000C9408010C9408010C9408010C940801EB
:100170000C9408010C9408010C9408010C940801DB
:100180000C9408010C9408010C9408010C940801CB
:100190000C9408010C9408010C9408010C940801BB
:1001A0000C9408010C9408010C9408010C940801AB
:1001B0000C9408010C9408010C9408010C9408019B
:1001C0000C9408010C9408010C9408010C9408018B
:1001D0000C9408010C9408010C9408010C9408017B
:1001E0000C9408010C9408010C9408010C9408016B
:1001F0000C9408010C9408010C94080111241FBEF2
:10020000CFEFCDBFDFE2DEBF0E9442010C949D0123
:100210000C94000092E0909306068093C308E0ECF3
:10022000F8E082818823ECF76093C308E0ECF8E003
:1002300082818823ECF782E080930506089581117E
:1002400004C084E0809306060BC0813021F488E06E
:100250008093060605C08230A1F480E180930606F3
:100260006093C308E0ECF8E082818823ECF74093C8
:10027000C308E0ECF8E082818823ECF78CE18093FE
:1002800005060895E0E5F0E0808182608083818149
:1002900081FFFDCF88ED84BF81E080934000E0E5E1
:1002A000F0E080818E7F8083E0E0F6E08EE1818364
:1002B0008583E0E4F6E088EB818388E3858383E04F
:1002C0008093A20091ED9093C008E0EAF8E090E2FC
:1002D0009383858383E8868380ED878388E18483A5
:1002E00063E384EF0E940A014CE060E180E00E9439
:1002F0001F014CE06FE080E00E941F0143E066E3D5
:1003000080E00E941F0146E060E181E00E941F0141
:1003100042E06FE081E00E941F014BE161E582E075
:100320000E941F0149E262E582E00E941F0143E250
:0E0330006CE482E00E941F01FFCFF894FFCF23
:00000001FF
