:100000000C94FE000C9410010C9410010C9410013F
:100010000C9410010C9410010C9410010C9410011C
:100020000C9410010C9410010C9410010C9410010C
:100030000C9410010C9410010C9410010C941001FC
:100040000C9410010C9410010C9410010C941001EC
:100050000C9410010C9410010C9410010C941001DC
:100060000C9410010C9496010C9410010C94100146
:100070000C9410010C9410010C9410010C941001BC
:100080000C9410010C9410010C9410010C941001AC
:100090000C9410010C9410010C9410010C9410019C
:1000A0000C9410010C9410010C9410010C9410018C
:1000B0000C9410010C9410010C9410010C9410017C
:1000C0000C9410010C9410010C9410010C9410016C
:1000D0000C9410010C9410010C9410010C9410015C
:1000E0000C9410010C9410010C9410010C9410014C
:1000F0000C9410010C9410010C9410010C9410013C
:100100000C9410010C9410010C9410010C9410012B
:100110000C9410010C9410010C9410010C9410011B
:100120000C9410010C9410010C9410010C9410010B
:100130000C9410010C9410010C9410010C941001FB
:100140000C9410010C9410010C9410010C941001EB
:100150000C9410010C9410010C9410010C941001DB
:100160000C9410010C9410010C9410010C941001CB
:100170000C9410010C9410010C9410010C941001BB
:100180000C9410010C9410010C9410010C941001AB
:100190000C9410010C9410010C9410010C9410019B
:1001A0000C9410010C9410010C9410010C9410018B
:1001B0000C9410010C9410010C9410010C9410017B
:1001C0000C9410010C9410010C9410010C9410016B
:1001D0000C9410010C9410010C9410010C9410015B
:1001E0000C9410010C9410010C9410010C9410014B
:1001F0000C9410010C9410010C94100111241FBEDA
:10020000CFEFCDBFDFE2DEBF21E2A0E0B0E201C070
:100210001D92A230B207E1F70E94DE010C94620247
:100220000C94000092E0909306068093C308E0ECE3
:10023000F8E082818823ECF76093C308E0ECF8E0F3
:1002400082818823ECF782E080930506089592E08E
:100250009093060680688093C308E0ECF8E0828102
:100260008823ECF71092C308E0ECF8E08281882341
:10027000ECF78091C30892E09093050608958111F0
:1002800004C084E0809306060BC0813021F488E02E
:100290008093060605C08230A1F480E180930606B3
:1002A0006093C308E0ECF8E082818823ECF7409388
:1002B000C308E0ECF8E082818823ECF78CE18093BE
:1002C00005060895811104C084E0809306060BC0E2
:1002D000813021F488E08093060605C08230C1F4A5
:1002E00080E18093060660686093C308E0ECF8E064
:1002F00082818823ECF71092C308E0ECF8E0828159
:100300008823ECF78091C3089CE19093050608953B
:1003100080E00895909101209F5F90930120E091EB
:100320000120F0E0EE5FFF4D808308951F920F9251
:100330000FB60F9211242F933F934F935F936F93B8
:100340007F938F939F93AF93BF93EF93FF9380918E
:10035000A0080E948A01FF91EF91BF91AF919F91F8
:100360008F917F916F915F914F913F912F910F905E
:100370000FBE0F901F901895909100209F5F909353
:100380000020E0910020F0E0EE57FF4D80830895BB
:100390008091002090E0E0EAF8E0818184FFFDCFC9
:1003A000A92FB0E0AE57BF4D8C9180839F5F8091A5
:1003B0000020891790F7109200200895E0E5F0E002
:1003C0008081866080839181818186609813FBCFD4
:1003D00088ED84BF81E08093400080936000E0E579
:1003E000F0E080818E7F8083E0E0F6E08EE1818323
:1003F0008583E0E4F6E088EB818388E3858383E00E
:100400008093A20091ED9093C008E0EAF8E090E2BA
:100410009383858383E8868380ED878388E1848363
:1004200063E384EF0E9412014CE060E180E00E94EF
:100430003F014CE06FE080E00E943F0143E066E353
:1004400080E00E943F0146E060E181E00E943F01C0
:1004500042E06FE081E00E943F014BE161E582E014
:100460000E943F0149E262E582E00E943F0143E2CF
:100470006CE482E00E943F0180ED0E942701C1E010
:10048000883509F0C0E060E080E00E9462018A3FA8
:1004900009F4C26060E081E00E9462018F3009F4DB
:1004A000C46060E482E00E946201823309F4C860A3
:1004B00080E00E94BC018C2F0E94BC0178940E94B5
:0804C000C801FDCFF894FFCF45
:00000001FF
